:030000000210A744
:0C10A700787FE4F6D8FD75815A0210EE47
:03000300DFFE22FB
:10000E00AE07AF061EEF600C7FF51200037FF512F0
:05001E00000380EE224A
:1011A6007265616479206F6B0041542B434D47464D
:1011B6003D310D0A0041542B435343533D224753BF
:1011C6004D220D0A0041542B434D47533D222B38E7
:1011D600363133303737333137393536220D0A0059
:0B11E60044616E6765726F7573210035
:1011F100043900000000043400000003023F000035
:1012010001381A4D00904E3A3030302E30303030A7
:101211003030004C0078453A3030302E30303030AC
:1012210030304100750141000001420068000001B9
:081231003E0001210001220032
:100E3E00121390121358C2A27F1412000E1212A295
:100E4E00E4FF1212CFBFE5127F0512000E7BFF7A70
:100E5E001179A67D0812124280057F0312000EE45E
:100E6E00F53D7F6412000E053DE53DC3940A40F248
:100E7E0012123AE4F53D7F6412000E053DE53DC3C6
:100E8E00940740F2D2A1D2A4D2A2E4F53FF540E5F8
:100E9E003ED394024006E4F53E120026E523706D23
:100EAE0075230112113305227F007E807D097C445B
:100EBE00AB52AA51A950A84F120BAB4019AF56AE68
:100ECE0055AD54AC53120C561213D9D3EF94EEEE1B
:100EDE006480948240020521E522C39405402EE4ED
:100EEE007F03FEFDFCAB37AA36A935A834120E2DB2
:100EFE004016E521D394014006C2A1C2A48009D2B6
:100F0E00A1D2A4E4F53FF540E4F521F522C3E54076
:100F1E00940FE53F94005003020FC8C2A212123A7A
:100F2E00E4F53D7F6412000E053DE53DC39404409B
:100F3E00F27BFF7A1179BB7D0F121242E4F53D7FF1
:100F4E006412000E053DE53DC3940440F27BFF7A2A
:100F5E001179CB7D1A121242E4F53D7F6412000E18
:100F6E00053DE53DC3940340F27BFF7A1179E67DA2
:100F7E000A1212427B017A0079907D0C1212427B8A
:100F8E00017A0079787D0C1212427F6412000E7B7A
:100F9E00007A0079387D01121242E4F53D7F641229
:100FAE00000E053DE53DC3941E40F2E4F53FF540CD
:100FBE00D2A2F537F536F535F53430A003020E9D85
:100FCE007F0A12000E30A003020E9DE4F53FF5409D
:0D0FDE00D2A1F537F536F535F534020E9D3C
:10002600E4F508900075E060030205A804F090006E
:1000360057E024D0FFE434FFFEE4FCFD7B407A4227
:10004600790FF8120D02C004C005C006C007900063
:1000560056E024D0FFE434FFFEE4FCFD7B807A9674
:100066007998F8120D02D003D002D001D000EF2B00
:10007600FFEE3AFEED39FDEC388F0C8E0B8D0AF54E
:1000860009900059E024D0FFE434FFFEE4FCFD7B38
:10009600407A42790FF8120D02C004C005C006C0AE
:1000A60007900058E024D0FFE434FFFEE4FCFD7B1B
:1000B600807A967998F8120D02D003D002D001D03A
:1000C60000EF2BFFEE3AFEED39FDEC38FCC004C024
:1000D60005C006C00790005AE024D0FFE434FFFEB6
:1000E600E4FCFD7BA07A867901F8120D02D003D0DC
:1000F60002D001D000EF2BFFEE3AFEED39FDEC38D1
:10010600FCC004A905AA06AB0790005BE024D0FF5B
:10011600E434FFFE7C277D10120CF0E4FCFDD000D9
:10012600EB2FFFEA3EFEED39FDEC38FCC004A905D5
:10013600AA06AB07A3E024D0FFE434FFFE7C037DD0
:10014600E8120CF0E4FCFDD000EB2FFFEA3EFEEDDA
:1001560039FDEC38FCC004A905AA06AB07A3E024C8
:10016600D0FFE434FFFE7C007D64120CF0E4FDD089
:1001760000EB2FFFEA3EFEED39FDEC388F108E0FB7
:100186008D0EF50DFCE47B3CFAF9F8120D8D8F10FF
:100196008E0F8D0E8C0DE50C2510F514E50B350F25
:1001A600F513E50A350EF512E509350DF511900042
:1001B60090744EF0A3743AF0A37430F07B807A9674
:1001C60079987800AF14AE13AD12AC11120D8DEF05
:1001D6002430900093F07B407A42790F7800AF1478
:1001E600AE13AD12AC11120D8DE47B0AFAF9F812BA
:1001F6000D8DEB2430900094F0A3742EF07BA07A42
:100206008679017800AF14AE13AD12AC11120D8DC4
:10021600E47B0AFAF9F8120D8DEB2430900096F083
:10022600E47B107A27F9F8AF14AE13AD12AC1112B5
:100236000D8DE47B0AFAF9F8120D8DEB243090004F
:1002460097F0E47BE87A03F9F8AF14AE13AD12AC7D
:1002560011120D8DE47B0AFAF9F8120D8DEB24309C
:10026600900098F0E47B64FAF9F8AF14AE13AD127F
:10027600AC11120D8DE47B0AFAF9F8120D8DEB2400
:1002860030900099F0E47B0AFAF9F8AF14AE13AD9A
:1002960012AC11120D8DE47B0AFAF9F8120D8DEBF2
:1002A600243090009AF0E47B0AFAF9F8AF14AE1302
:1002B600AD12AC11120D8DEB243090009BF0900026
:1002C6005FE024D0FFE434FFFEE4FCFD7B807A96F9
:1002D6007998F8120D02C004C005C006C007900048
:1002E6005EE024D0FFE434FFFEE4FCFDFB7AE17916
:1002F600F57805120D02D003D002D001D000EF2B05
:10030600FFEE3AFEED39FDEC38FCC004C005C00630
:10031600C007900060E024D0FFE434FFFEE4FCFD5B
:100326007B407A42790FF8120D02D003D002D00139
:10033600D000EF2BFFEE3AFEED39FDEC388F0C8E38
:100346000B8D0AF509900062E024D0FFE434FFFE2D
:10035600E4FCFD7B407A42790FF8120D02C004C01E
:1003660005C006C007900061E024D0FFE434FFFE1C
:10037600E4FCFD7B807A967998F8120D02D003D0C2
:1003860002D001D000EF2BFFEE3AFEED39FDEC383E
:10039600FCC004C005C006C007900063E024D0FF7F
:1003A600E434FFFEE4FCFD7BA07A867901F8120DA9
:1003B60002D003D002D001D000EF2BFFEE3AFEEDC3
:1003C60039FDEC38FCC004A905AA06AB0790006409
:1003D600E024D0FFE434FFFE7C277D10120CF0E40D
:1003E600FCFDD000EB2FFFEA3EFEED39FDEC38FCBC
:1003F600C004A905AA06AB07A3E024D0FFE434FF96
:10040600FE7C037DE8120CF0E4FCFDD000EB2FFF30
:10041600EA3EFEED39FDEC38FCC004A905AA06ABA0
:1004260007A3E024D0FFE434FFFE7C007D64120CB9
:10043600F0E4FDD000EB2FFFEA3EFEED39FDEC388F
:100446008F108E0F8D0EF50DFCE47B3CFAF9F81239
:100456000D8D8F108E0F8D0E8C0DE50C2510F5145D
:10046600E50B350FF513E50A350EF512E509350DE1
:10047600F5119000787445F0A3743AF07B007AE1A8
:1004860079F57805AF14AE13AD12AC11120D8DEFE0
:10049600243090007AF07B807A9679987800AF14B1
:1004A600AE13AD12AC11120D8DE47B0AFAF9F812F7
:1004B6000D8DEB243090007BF07B407A42790F78EB
:1004C60000AF14AE13AD12AC11120D8DE47B0AFA17
:1004D600F9F8120D8DEB243090007CF0A3742EF009
:1004E6007BA07A8679017800AF14AE13AD12AC11F9
:1004F600120D8DE47B0AFAF9F8120D8DEB2430907B
:10050600007EF0E47B107A27F9F8AF14AE13AD1233
:10051600AC11120D8DE47B0AFAF9F8120D8DEB245D
:100526003090007FF0E47BE87A03F9F8AF14AE135D
:10053600AD12AC11120D8DE47B0AFAF9F8120D8D8D
:10054600EB2430900080F0E47B64FAF9F8AF14AE47
:1005560013AD12AC11120D8DE47B0AFAF9F8120DE7
:100566008DEB2430900081F0E47B0AFAF9F8AF14A1
:10057600AE13AD12AC11120D8DE47B0AFAF9F81226
:100586000D8DEB2430900082F0E47B0AFAF9F8AF87
:1005960014AE13AD12AC11120D8DEB243090008306
:1005A600F0229000787447F0A37450F0A37453F0CF
:1005B600A37420F0A3744CF0A37449F0A3744EF016
:1005C600A3744BF0A37449F0A3744EF0A37447F0E0
:1005D600A3742EF0A3F0A3F0E4F53D7478253DF561
:1005E60082E43400F583E0FF7490253DF582E4341F
:0C05F60000F583EFF0053DE53DB40EDF9D
:0106020022D5
:10139000438901758CB1758AE0D2AFD2A9D28C2273
:03000B00020FEBF6
:100FEB00C0E0C0F0C083C082C0D075D000C000C0CC
:100FFB0001C002C003C004C005C006C007758CB198
:10100B00758AE0E53C2401F53CE4353BF53BE435E2
:10101B003AF53AE43539F539E47B0AFAF9F8AF3C9D
:10102B00AE3BAD3AAC39120D8DAC00AD01AE02AF9B
:10103B0003E4FBFAF9F8C3120E2D7002F523E47BDF
:10104B0032FAF9F8AF3CAE3BAD3AAC39120D8DAC80
:10105B0000AD01AE02AF03E4FBFAF9F8C3120E2D9B
:10106B00701F0540E5407002053FE5372401F53759
:10107B00E43536F536E43535F535E43534F53405F8
:10108B003ED007D006D005D004D003D002D001D07B
:0C109B0000D0D0D082D083D0F0D0E03262
:10135800759850438920758DFD858D8BD28ED2AFBF
:03136800D2AC22E2
:10131100E4F50D8F99209910E50DC39464500905EA
:0A1321000D7F0A12000380EDC2994F
:01132B00229F
:08123A007BFF7A1179AF7D0BF7
:081242008B088A09890A8D0B53
:10124A00E4F50CE50CC3950B501CAB08AA09A90AD6
:10125A00120CD7FF1213117401250AF50AE4350995
:06126A00F509050C80DD12
:01127000225B
:03002300020603CF
:10060300C0E0C083C082C0D075D000C004C005C0A4
:1006130006C007209803020A8FC29890008BE599C1
:10062300F090006EE4F0900000E024FE603514705A
:10063300030206CF14700302078324036003020A34
:100643008F90008BE0FF64246003020A8F90006E9A
:1006530004F0EF900000B4240574020207787401DB
:1006630002077890006EE06003020A8F04F09000A6
:100673008BE0FF900068A3E02401F582E43400F5E9
:1006830083EFF0900069E004F07006900068E004E6
:10069300F0900068E07004A3E064056003020A8F31
:1006A300900001E06447701CA3E0B45017A3E0B4CA
:1006B3005212A3E0B44D0DA3E0B4430890000074BC
:1006C30003020778900000740102077890006EE03F
:1006D3006003020A8F04F0900069E004F070069052
:1006E3000068E004F0900068E0FEA3E0FFD394010B
:1006F300EE9400401DEF9408EE9400501590008B8B
:10070300E0FF900068A3E02483F582E43400F583DE
:10071300EFF090008BE0FFB42C21900068E0FCA385
:10072300E0FDD39407EC94004011ED9410EC940099
:100733005009900068E4F0A374CCF0900068E07076
:1007430004A3E064CD6003020A8F900068F0A3F075
:1007530090008F7402F0900067E4F0900077F0EF60
:10076300B441099000007404F0020A8F900075747C
:1007730001F0900000F0900068E4F0A3F0020A8F0B
:1007830090006EE06003020A8F04F0900069E004B9
:10079300F07006900068E004F090008BE0FFB42C4A
:1007A3000D90008FE004F0900068E4F0A3F0900057
:1007B3008FE0FE64037055900068E0FCA3E0FDD376
:1007C3009400EC94004018ED9405EC9400501090C4
:1007D3000068A3E02455F582E43400F583EFF0903C
:1007E3000068E0FCA3E0FDD39405EC9400401DED0C
:1007F300940AEC9400501590008BE0FF900068A3DE
:10080300E02454F582E43400F583EFF0EEB40417EA
:10081300D3900069E09400900068E0940040089051
:10082300008BE0900084F090008FE06405705A9094
:100833000068E0FEA3E0FFD39400EE9400401DEFB8
:100843009406EE9400501590008BE0FF900068A38F
:10085300E0245DF582E43400F583EFF0900068E076
:10086300FEA3E0FFD39406EE9400401DEF940BEE3D
:100873009400501590008BE0FF900068A3E0245C87
:10088300F582E43400F583EFF090008FE0FFB406C7
:1008930017D3900069E09400900068E0940040084A
:1008A30090008BE0900076F0EF6407600302098606
:1008B300900067E0FF7048A3E0FCA3E0FDD3940041
:1008C300EC9400401890008BE0FE642E600F746976
:1008D3002DF582E43400F583EEF002098690008B57
:1008E300E0642E6003020986900069E024FFF09023
:1008F3000068E034FFF090006774FFF0020986EFB0
:10090300F4600302098690006774FEF090008BE0A8
:10091300FF900068E0FCA3E0FDFE2469F582E43467
:1009230000F583EFF074692EF582E43400F583E07B
:1009330090006DF074682EF582E43400F583E09046
:10094300006CF0D3ED9402EC9400401174672EF523
:1009530082E43400F583E090006BF0800690006B36
:100963007430F0D3ED9403EC9400401174662EF5CB
:1009730082E43400F583E090006AF0800690006A18
:100983007430F090008FE064086003020A3F900027
:1009930077E0FF7046900068E0FCA3E0FDD394008D
:1009A300EC9400401890008BE0FE642E600F748B73
:1009B3002DF582E43400F583EEF0020A3F90008BBC
:1009C300E0642E7077900069E024FFF0900068E007
:1009D30034FFF090007774FFF08061EFF4705D9066
:1009E300007774FEF0900068E0FEA3E0FF64024E1F
:1009F3007019748A2FF582E43400F583E090008E39
:100A0300F090008D7430F090008CF0900068E0FE60
:100A1300A3E0FF64034E7024748A2FF582E434004C
:100A2300F583E090008EF074892FF582E43400F5AD
:100A330083E090008DF090008C7430F090008FE094
:100A4300B4092D900068E0FEA3E0FFD39400EE9478
:100A530000401DEF9407EE9400501590008BE0FFCB
:100A6300900068A3E0246EF582E43400F583EFF090
:100A730090008BE0B40D159000007401F0900068B5
:100A8300E4F0A3F090008FF0900075F0309902C26B
:100A930099D007D006D005D004D0D0D082D083D04F
:020AA300E0323F
:06136B00EF25E0FFD29225
:0D137100000000000000000000000000224D
:0E13A0007F307E02EF1FAC0670011E4C70F60F
:0113AE00221C
:0F13AF00D293D292121371C293121371C292226F
:0C13CD00C293D292121371D293021371DA
:0F13BE00EF24FF9293D292121371C29202137115
:10134400D292121371A2939200C292121371A2004C
:03135400E433FF80
:011357002273
:0512F1001213AF7FA6FF
:1012F600E4FEEF30E704D2938002C29312136BC26E
:0B130600921213710EBE08EA0213449D
:10132C00E4FFD293FE12136BA293E4334207C292F2
:07133C001213710EBE08EE52
:011343002287
:10137E00AC071212F1AF041212F6AF051212F602FA
:02138E0013CD7D
:0212CF00AD0769
:1012D1001212F1AF051212F61213AF7FA71212F616
:0F12E10012132CAE077F011213BE1213CDAF06EE
:0112F00022DB
:101271001212F17F321212F61213AF7FA71212F679
:10128100E4FD12132C74472DF8A607BD05047F0158
:101291008002E4FF1213BE0DBD06E71213CD021347
:0112A100A0AC
:1012A2007D0B7F3112137E7D087F2C12137E7F2DE2
:1012B20012137E7D807F2E12137EE4FD7F1E121399
:0D12C2007E7F1F12137E7D057F2002137EAC
:10113300121271E548FE7C00E42547FFEC3EFEAD4C
:1011430007FC120C1D7B9A7A9979797840120AA5CB
:101153008F528E518D508C4FE54AFE7C00E4254919
:10116300FFEC3EFEAD07FC120C1D7B9A7A99797950
:101173007840120AA58F568E558D548C53E54CFE3C
:101183007C00E4254BFFEC3EFEAD07FC120C1D7BFF
:101193009A7A9979797840120AA58F5A8E598D587F
:0211A3008C5767
:0111A5002227
:100AA500EC4D6011E8497017ED33EC3304600DE44B
:100AB500FCFFFEFD22E933E8330470F8020CC21294
:100AC5000C8D58046009E4CC248150062850090295
:100AD5000CCC284003020CC9C0E0EB4A7044B98035
:100AE50006D0E0FB020CB8EF4E701CBD8008EBFF92
:100AF500EAFEE9FD80EBE98DF0A4FEE5F0020B8E40
:100B0500E9CDF9EAFEEBFFEF89F0A4FCE5F0CE892B
:100B1500F0A42EFFE435F0CD89F0A42DFEE435F0E8
:100B25008067EF4E7005BD80D780C3EF8BF0A4AC16
:100B3500F0EE8BF0A42CFCE435F0F8EF8AF0A42C51
:100B4500E5F038FCE433CB8DF0A42CFCE5F03BF864
:100B5500EE8AF0A42CFCE5F038F8E433CF89F0A454
:100B65002CFCE5F038CF3400CE89F0A42FFFE5F05A
:100B75003EFEE433C98DF0A42EFEE5F039CD8AF0B2
:100B8500A42FFFE5F03EFEE43DFD33D0E0FB50072A
:100B95000BBB000F020CCCEC2CFCEF33FFEE33FE4D
:060BA500ED33FD020CA47B
:100BAB0074F8CC6480CCC86480C8F582046043C3FD
:100BBB00EB9FF5F0EA9E42F0E99D42F0E89C45F090
:100BCB0060305018E5825FFFE582F42B5582FB50B5
:100BDB00210ABA001D09B90019088016E5825BFBD2
:100BEB00E582F42F5582FF50090EBE00050DBD00A6
:100BFB00010CC3EB9FF5F0EA9E42F0E99D42F0E851
:0D0C0B009C45F06007CC4820E701B3EC22C7
:100C180075F020800E75F010800575F0087D007E57
:100C2800007F003392D530D503120E1FEC334010ED
:100C3800EF33FFEE33FEED33FDEC33FCD5F0ED2260
:0E0C4800E5F0247EA2D513CC92E7CDCEFF229C
:100C5600EDD2E7CD33EC3392D524814006E4FFFE96
:100C6600FDFC22FCE4CFCECDCC24E0501174FF80F5
:100C7600EDC3CC13CCCD13CDCE13CECF13CF047092
:070C8600F030D5DE020E1F65
:100C8D00E9D2E7C933E833F892D5EDD2E7CD33ECAD
:070C9D0033FC5002B2D52226
:100CA400EC30E7100FBF000C0EBE00080DBD0004B1
:100CB4000BEB6014A2D5EB13FCED92E7FD2274FF5D
:100CC400FCFDFEFF22E480F8A2D574FF13FC7D80B6
:030CD400E480EFCA
:1010B300020E3EE493A3F8E493A34003F68001F207
:1010C30008DFF48029E493A3F85407240CC8C3333E
:1010D300C4540F4420C8834004F456800146F6DF0D
:1010E300E4800B01020408102040809011F1E47E9B
:1010F300019360BCA3FF543F30E509541FFEE49302
:10110300A360010ECF54C025E060A840B8E493A3C8
:10111300FAE493A3F8E493A3C8C582C8CAC583CAF3
:10112300F0A3C8C582C8CAC583CADFE9DEE780BEAB
:0112390000B4
:100CD700BB010689828A83E0225002E722BBFE021B
:090CE700E32289828A83E493224E
:100CF000EF8DF0A4A8F0CF8CF0A428CE8DF0A42E18
:020D0000FE22D1
:100D0200E88FF0A4CC8BF0A42CFCE98EF0A42CFC90
:100D12008AF0EDA42CFCEA8EF0A4CDA8F08BF0A40E
:100D22002DCC3825F0FDE98FF0A42CCD35F0FCEB6D
:100D32008EF0A4FEA9F0EB8FF0A4CFC5F02ECD3932
:0F0D4200FEE43CFCEAA42DCE35F0FDE43CFC229F
:100D510075F008758200EF2FFFEE33FECD33CDCC59
:100D610033CCC58233C5829BED9AEC99E5829840DC
:100D71000CF582EE9BFEED9AFDEC99FC0FD5F0D6B9
:100D8100E4CEFBE4CDFAE4CCF9A88222B800C1B9E3
:100D91000059BA002DEC8BF084CFCECDFCE5F0CB21
:100DA100F97818EF2FFFEE33FEED33FDEC33FCEB5A
:100DB10033FB10D703994004EB99FB0FD8E5E4F915
:100DC100FA227818EF2FFFEE33FEED33FDEC33FC02
:100DD100C933C910D7059BE99A4007EC9BFCE99AF6
:100DE100F90FD8E0E4C9FAE4CCFB2275F010EF2F3B
:100DF100FFEE33FEED33FDCC33CCC833C810D7073B
:100E01009BEC9AE899400AED9BFDEC9AFCE899F875
:0E0E11000FD5F0DAE4CDFBE4CCFAE4C8F92208
:0E0E1F00C3E49FFFE49EFEE49DFDE49CFC22E4
:100E2D00EB9FF5F0EA9E42F0E99D42F0E89C45F01B
:010E3D002292
:0C13D900EE30E707C3E49FFFE49EFE2215
:00000001FF
